{
  "contractName": "List",
  "abi": [
    {
      "inputs": [],
      "stateMutability": "nonpayable",
      "type": "constructor"
    },
    {
      "anonymous": false,
      "inputs": [
        {
          "indexed": false,
          "internalType": "string",
          "name": "name",
          "type": "string"
        }
      ],
      "name": "deleteItem",
      "type": "event"
    },
    {
      "anonymous": false,
      "inputs": [
        {
          "indexed": false,
          "internalType": "string",
          "name": "name",
          "type": "string"
        }
      ],
      "name": "newItem",
      "type": "event"
    },
    {
      "inputs": [
        {
          "internalType": "uint256",
          "name": "",
          "type": "uint256"
        }
      ],
      "name": "ListTotal",
      "outputs": [
        {
          "internalType": "string",
          "name": "",
          "type": "string"
        }
      ],
      "stateMutability": "view",
      "type": "function",
      "constant": true
    },
    {
      "inputs": [],
      "name": "ViewList",
      "outputs": [
        {
          "internalType": "string[]",
          "name": "",
          "type": "string[]"
        }
      ],
      "stateMutability": "view",
      "type": "function",
      "constant": true
    },
    {
      "inputs": [
        {
          "internalType": "string",
          "name": "name",
          "type": "string"
        }
      ],
      "name": "AddItem",
      "outputs": [],
      "stateMutability": "nonpayable",
      "type": "function"
    },
    {
      "inputs": [
        {
          "internalType": "string",
          "name": "_name",
          "type": "string"
        }
      ],
      "name": "DeleteItem",
      "outputs": [],
      "stateMutability": "nonpayable",
      "type": "function"
    }
  ],
  "bytecode": "0x608060405234801561001057600080fd5b50336000806101000a81548173ffffffffffffffffffffffffffffffffffffffff021916908373ffffffffffffffffffffffffffffffffffffffff160217905550610d23806100606000396000f3fe608060405234801561001057600080fd5b506004361061004c5760003560e01c8063aa9b69da14610051578063c801503d1461006f578063d1bc965a1461008b578063efd7affd146100bb575b600080fd5b6100596100d7565b604051610066919061094c565b60405180910390f35b610089600480360381019061008491906106d0565b6101b0565b005b6100a560048036038101906100a09190610719565b610311565b6040516100b29190610992565b60405180910390f35b6100d560048036038101906100d09190610683565b6103bd565b005b60606001805480602002602001604051908101604052809291908181526020016000905b828210156101a757838290600052602060002001805461011a90610b10565b80601f016020809104026020016040519081016040528092919081815260200182805461014690610b10565b80156101935780601f1061016857610100808354040283529160200191610193565b820191906000526020600020905b81548152906001019060200180831161017657829003601f168201915b5050505050815260200190600101906100fb565b50505050905090565b60005b60018054905081101561030d57816040516020016101d1919061091e565b60405160208183030381529060405280519060200120600182815481106101fb576101fa610c49565b5b906000526020600020016040516020016102159190610935565b6040516020818303038152906040528051906020012014156102fc5760018080805490506102439190610a90565b8154811061025457610253610c49565b5b906000526020600020016001828154811061027257610271610c49565b5b9060005260206000200190805461028890610b10565b610293929190610438565b5060018054806102a6576102a5610c1a565b5b6001900381819060005260206000200160006102c291906104c5565b90557f6521f437ff8c823b373607787fde8e3ee45c53f80e8436d74cdb4d05721c1408826040516102f39190610992565b60405180910390a15b8061030690610b73565b90506101b3565b5050565b6001818154811061032157600080fd5b90600052602060002001600091509050805461033c90610b10565b80601f016020809104026020016040519081016040528092919081815260200182805461036890610b10565b80156103b55780601f1061038a576101008083540402835291602001916103b5565b820191906000526020600020905b81548152906001019060200180831161039857829003601f168201915b505050505081565b60018282909180600181540180825580915050600190039060005260206000200160009091929091929091929091925091906103fa929190610505565b507f659b3c43848b65b0b98529e69b2de4f1ac86fc35bcc8b4d8586d6178b88593ae828260405161042c92919061096e565b60405180910390a15050565b82805461044490610b10565b90600052602060002090601f01602090048101928261046657600085556104b4565b82601f1061047757805485556104b4565b828001600101855582156104b457600052602060002091601f016020900482015b828111156104b3578254825591600101919060010190610498565b5b5090506104c1919061058b565b5090565b5080546104d190610b10565b6000825580601f106104e35750610502565b601f016020900490600052602060002090810190610501919061058b565b5b50565b82805461051190610b10565b90600052602060002090601f016020900481019282610533576000855561057a565b82601f1061054c57803560ff191683800117855561057a565b8280016001018555821561057a579182015b8281111561057957823582559160200191906001019061055e565b5b509050610587919061058b565b5090565b5b808211156105a457600081600090555060010161058c565b5090565b60006105bb6105b6846109d9565b6109b4565b9050828152602081018484840111156105d7576105d6610cb6565b5b6105e2848285610ace565b509392505050565b60008083601f840112610600576105ff610cac565b5b8235905067ffffffffffffffff81111561061d5761061c610ca7565b5b60208301915083600182028301111561063957610638610cb1565b5b9250929050565b600082601f83011261065557610654610cac565b5b81356106658482602086016105a8565b91505092915050565b60008135905061067d81610cd6565b92915050565b6000806020838503121561069a57610699610cc0565b5b600083013567ffffffffffffffff8111156106b8576106b7610cbb565b5b6106c4858286016105ea565b92509250509250929050565b6000602082840312156106e6576106e5610cc0565b5b600082013567ffffffffffffffff81111561070457610703610cbb565b5b61071084828501610640565b91505092915050565b60006020828403121561072f5761072e610cc0565b5b600061073d8482850161066e565b91505092915050565b600061075283836107fc565b905092915050565b600061076582610a2f565b61076f8185610a52565b93508360208202850161078185610a0a565b8060005b858110156107bd578484038952815161079e8582610746565b94506107a983610a45565b925060208a01995050600181019050610785565b50829750879550505050505092915050565b60006107db8385610a74565b93506107e8838584610ace565b6107f183610cc5565b840190509392505050565b600061080782610a3a565b6108118185610a63565b9350610821818560208601610add565b61082a81610cc5565b840191505092915050565b600061084082610a3a565b61084a8185610a74565b935061085a818560208601610add565b61086381610cc5565b840191505092915050565b600061087982610a3a565b6108838185610a85565b9350610893818560208601610add565b80840191505092915050565b600081546108ac81610b10565b6108b68186610a85565b945060018216600081146108d157600181146108e257610915565b60ff19831686528186019350610915565b6108eb85610a1a565b60005b8381101561090d578154818901526001820191506020810190506108ee565b838801955050505b50505092915050565b600061092a828461086e565b915081905092915050565b6000610941828461089f565b915081905092915050565b60006020820190508181036000830152610966818461075a565b905092915050565b600060208201905081810360008301526109898184866107cf565b90509392505050565b600060208201905081810360008301526109ac8184610835565b905092915050565b60006109be6109cf565b90506109ca8282610b42565b919050565b6000604051905090565b600067ffffffffffffffff8211156109f4576109f3610c78565b5b6109fd82610cc5565b9050602081019050919050565b6000819050602082019050919050565b60008190508160005260206000209050919050565b600081519050919050565b600081519050919050565b6000602082019050919050565b600082825260208201905092915050565b600082825260208201905092915050565b600082825260208201905092915050565b600081905092915050565b6000610a9b82610ac4565b9150610aa683610ac4565b925082821015610ab957610ab8610bbc565b5b828203905092915050565b6000819050919050565b82818337600083830152505050565b60005b83811015610afb578082015181840152602081019050610ae0565b83811115610b0a576000848401525b50505050565b60006002820490506001821680610b2857607f821691505b60208210811415610b3c57610b3b610beb565b5b50919050565b610b4b82610cc5565b810181811067ffffffffffffffff82111715610b6a57610b69610c78565b5b80604052505050565b6000610b7e82610ac4565b91507fffffffffffffffffffffffffffffffffffffffffffffffffffffffffffffffff821415610bb157610bb0610bbc565b5b600182019050919050565b7f4e487b7100000000000000000000000000000000000000000000000000000000600052601160045260246000fd5b7f4e487b7100000000000000000000000000000000000000000000000000000000600052602260045260246000fd5b7f4e487b7100000000000000000000000000000000000000000000000000000000600052603160045260246000fd5b7f4e487b7100000000000000000000000000000000000000000000000000000000600052603260045260246000fd5b7f4e487b7100000000000000000000000000000000000000000000000000000000600052604160045260246000fd5b600080fd5b600080fd5b600080fd5b600080fd5b600080fd5b600080fd5b6000601f19601f8301169050919050565b610cdf81610ac4565b8114610cea57600080fd5b5056fea2646970667358221220821fd80ca2a19af0d46b98ff7d2aad25d158568056cc1ae9efe0991dbca7fbec64736f6c63430008070033",
  "immutableReferences": {},
  "source": "// SPDX-License-Identifier: MIT\npragma solidity ^0.8.7;\n\ncontract List {\n    address owner;\n    constructor() {\n        owner = msg.sender;\n    }\n    event newItem(string name);\n    event deleteItem(string name);\n    string[] public ListTotal; \n    function ViewList() external view returns(string[] memory){\n        return ListTotal;\n    }\n    function AddItem(string calldata name) external{\n        ListTotal.push(name);\n        emit newItem(name);\n    }\n    function DeleteItem(string memory _name) public {\n        for (uint i = 0; i < ListTotal.length; ++i) {\n            if (keccak256(abi.encodePacked(ListTotal[i])) ==  keccak256(abi.encodePacked(_name))) {\n                ListTotal[i] = ListTotal[ListTotal.length-1];\n                ListTotal.pop();\n                emit deleteItem(_name);\n            }\n        }\n\n    }\n    \n}",
  "sourcePath": "/Users/gilbertzhuo/Desktop/Todo List/contracts/List.sol",
  "compiler": {
    "name": "solc",
    "version": "0.8.7+commit.e28d00a7.Linux.g++"
  },
  "schemaVersion": "3.4.3",
  "updatedAt": "2021-09-14T12:03:32.087Z",
  "networkType": "ethereum",
  "devdoc": {
    "kind": "dev",
    "methods": {},
    "version": 1
  },
  "userdoc": {
    "kind": "user",
    "methods": {},
    "version": 1
  }
}