{
  "contractName": "List",
  "abi": [
    {
      "inputs": [],
      "stateMutability": "nonpayable",
      "type": "constructor"
    },
    {
      "anonymous": false,
      "inputs": [
        {
          "indexed": false,
          "internalType": "string",
          "name": "name",
          "type": "string"
        }
      ],
      "name": "deleteItem",
      "type": "event"
    },
    {
      "anonymous": false,
      "inputs": [
        {
          "indexed": false,
          "internalType": "string",
          "name": "name",
          "type": "string"
        },
        {
          "indexed": false,
          "internalType": "string",
          "name": "description",
          "type": "string"
        }
      ],
      "name": "newItem",
      "type": "event"
    },
    {
      "inputs": [
        {
          "internalType": "uint256",
          "name": "",
          "type": "uint256"
        }
      ],
      "name": "ListTotal",
      "outputs": [
        {
          "internalType": "string",
          "name": "name",
          "type": "string"
        },
        {
          "internalType": "string",
          "name": "description",
          "type": "string"
        }
      ],
      "stateMutability": "view",
      "type": "function",
      "constant": true
    },
    {
      "inputs": [],
      "name": "ViewList",
      "outputs": [
        {
          "components": [
            {
              "internalType": "string",
              "name": "name",
              "type": "string"
            },
            {
              "internalType": "string",
              "name": "description",
              "type": "string"
            }
          ],
          "internalType": "struct List.Item[]",
          "name": "",
          "type": "tuple[]"
        }
      ],
      "stateMutability": "view",
      "type": "function",
      "constant": true
    },
    {
      "inputs": [
        {
          "internalType": "string",
          "name": "name",
          "type": "string"
        },
        {
          "internalType": "string",
          "name": "description",
          "type": "string"
        }
      ],
      "name": "AddItem",
      "outputs": [],
      "stateMutability": "nonpayable",
      "type": "function"
    },
    {
      "inputs": [
        {
          "internalType": "string",
          "name": "_name",
          "type": "string"
        }
      ],
      "name": "DeleteItem",
      "outputs": [],
      "stateMutability": "nonpayable",
      "type": "function"
    }
  ],
  "bytecode": "0x608060405234801561001057600080fd5b50336000806101000a81548173ffffffffffffffffffffffffffffffffffffffff021916908373ffffffffffffffffffffffffffffffffffffffff16021790555061104d806100606000396000f3fe608060405234801561001057600080fd5b506004361061004c5760003560e01c8063aa9b69da14610051578063c801503d1461006f578063d1bc965a1461008b578063edbab857146100bc575b600080fd5b6100596100d8565b6040516100669190610c28565b60405180910390f35b61008960048036038101906100849190610968565b61025b565b005b6100a560048036038101906100a091906109b1565b610411565b6040516100b3929190610ca7565b60405180910390f35b6100d660048036038101906100d191906108e7565b610555565b005b60606001805480602002602001604051908101604052809291908181526020016000905b82821015610252578382906000526020600020906002020160405180604001604052908160008201805461012f90610e3a565b80601f016020809104026020016040519081016040528092919081815260200182805461015b90610e3a565b80156101a85780601f1061017d576101008083540402835291602001916101a8565b820191906000526020600020905b81548152906001019060200180831161018b57829003601f168201915b505050505081526020016001820180546101c190610e3a565b80601f01602080910402602001604051908101604052809291908181526020018280546101ed90610e3a565b801561023a5780601f1061020f5761010080835404028352916020019161023a565b820191906000526020600020905b81548152906001019060200180831161021d57829003601f168201915b505050505081525050815260200190600101906100fc565b50505050905090565b60005b60018054905081101561040d578160405160200161027c9190610bfa565b60405160208183030381529060405280519060200120600182815481106102a6576102a5610f73565b5b90600052602060002090600202016000016040516020016102c79190610c11565b6040516020818303038152906040528051906020012014156103fc5760018080805490506102f59190610dba565b8154811061030657610305610f73565b5b90600052602060002090600202016001828154811061032857610327610f73565b5b9060005260206000209060020201600082018160000190805461034a90610e3a565b61035592919061069c565b50600182018160010190805461036a90610e3a565b61037592919061069c565b50905050600180548061038b5761038a610f44565b5b6001900381819060005260206000209060020201600080820160006103b09190610729565b6001820160006103c09190610729565b505090557f6521f437ff8c823b373607787fde8e3ee45c53f80e8436d74cdb4d05721c1408826040516103f39190610c85565b60405180910390a15b8061040690610e9d565b905061025e565b5050565b6001818154811061042157600080fd5b906000526020600020906002020160009150905080600001805461044490610e3a565b80601f016020809104026020016040519081016040528092919081815260200182805461047090610e3a565b80156104bd5780601f10610492576101008083540402835291602001916104bd565b820191906000526020600020905b8154815290600101906020018083116104a057829003601f168201915b5050505050908060010180546104d290610e3a565b80601f01602080910402602001604051908101604052809291908181526020018280546104fe90610e3a565b801561054b5780601f106105205761010080835404028352916020019161054b565b820191906000526020600020905b81548152906001019060200180831161052e57829003601f168201915b5050505050905082565b6001604051806040016040528086868080601f016020809104026020016040519081016040528093929190818152602001838380828437600081840152601f19601f82011690508083019250505050505050815260200184848080601f016020809104026020016040519081016040528093929190818152602001838380828437600081840152601f19601f8201169050808301925050505050505081525090806001815401808255809150506001900390600052602060002090600202016000909190919091506000820151816000019080519060200190610639929190610769565b506020820151816001019080519060200190610656929190610769565b5050507fa3d835c0d20e4ea02829161220806adeb5242fbe9366410b8845ef78fd2a52ba8484848460405161068e9493929190610c4a565b60405180910390a150505050565b8280546106a890610e3a565b90600052602060002090601f0160209004810192826106ca5760008555610718565b82601f106106db5780548555610718565b8280016001018555821561071857600052602060002091601f016020900482015b828111156107175782548255916001019190600101906106fc565b5b50905061072591906107ef565b5090565b50805461073590610e3a565b6000825580601f106107475750610766565b601f01602090049060005260206000209081019061076591906107ef565b5b50565b82805461077590610e3a565b90600052602060002090601f01602090048101928261079757600085556107de565b82601f106107b057805160ff19168380011785556107de565b828001600101855582156107de579182015b828111156107dd5782518255916020019190600101906107c2565b5b5090506107eb91906107ef565b5090565b5b808211156108085760008160009055506001016107f0565b5090565b600061081f61081a84610d03565b610cde565b90508281526020810184848401111561083b5761083a610fe0565b5b610846848285610df8565b509392505050565b60008083601f84011261086457610863610fd6565b5b8235905067ffffffffffffffff81111561088157610880610fd1565b5b60208301915083600182028301111561089d5761089c610fdb565b5b9250929050565b600082601f8301126108b9576108b8610fd6565b5b81356108c984826020860161080c565b91505092915050565b6000813590506108e181611000565b92915050565b6000806000806040858703121561090157610900610fea565b5b600085013567ffffffffffffffff81111561091f5761091e610fe5565b5b61092b8782880161084e565b9450945050602085013567ffffffffffffffff81111561094e5761094d610fe5565b5b61095a8782880161084e565b925092505092959194509250565b60006020828403121561097e5761097d610fea565b5b600082013567ffffffffffffffff81111561099c5761099b610fe5565b5b6109a8848285016108a4565b91505092915050565b6000602082840312156109c7576109c6610fea565b5b60006109d5848285016108d2565b91505092915050565b60006109ea8383610bb6565b905092915050565b60006109fd82610d59565b610a078185610d7c565b935083602082028501610a1985610d34565b8060005b85811015610a555784840389528151610a3685826109de565b9450610a4183610d6f565b925060208a01995050600181019050610a1d565b50829750879550505050505092915050565b6000610a738385610d9e565b9350610a80838584610df8565b610a8983610fef565b840190509392505050565b6000610a9f82610d64565b610aa98185610d8d565b9350610ab9818560208601610e07565b610ac281610fef565b840191505092915050565b6000610ad882610d64565b610ae28185610d9e565b9350610af2818560208601610e07565b610afb81610fef565b840191505092915050565b6000610b1182610d64565b610b1b8185610daf565b9350610b2b818560208601610e07565b80840191505092915050565b60008154610b4481610e3a565b610b4e8186610daf565b94506001821660008114610b695760018114610b7a57610bad565b60ff19831686528186019350610bad565b610b8385610d44565b60005b83811015610ba557815481890152600182019150602081019050610b86565b838801955050505b50505092915050565b60006040830160008301518482036000860152610bd38282610a94565b91505060208301518482036020860152610bed8282610a94565b9150508091505092915050565b6000610c068284610b06565b915081905092915050565b6000610c1d8284610b37565b915081905092915050565b60006020820190508181036000830152610c4281846109f2565b905092915050565b60006040820190508181036000830152610c65818688610a67565b90508181036020830152610c7a818486610a67565b905095945050505050565b60006020820190508181036000830152610c9f8184610acd565b905092915050565b60006040820190508181036000830152610cc18185610acd565b90508181036020830152610cd58184610acd565b90509392505050565b6000610ce8610cf9565b9050610cf48282610e6c565b919050565b6000604051905090565b600067ffffffffffffffff821115610d1e57610d1d610fa2565b5b610d2782610fef565b9050602081019050919050565b6000819050602082019050919050565b60008190508160005260206000209050919050565b600081519050919050565b600081519050919050565b6000602082019050919050565b600082825260208201905092915050565b600082825260208201905092915050565b600082825260208201905092915050565b600081905092915050565b6000610dc582610dee565b9150610dd083610dee565b925082821015610de357610de2610ee6565b5b828203905092915050565b6000819050919050565b82818337600083830152505050565b60005b83811015610e25578082015181840152602081019050610e0a565b83811115610e34576000848401525b50505050565b60006002820490506001821680610e5257607f821691505b60208210811415610e6657610e65610f15565b5b50919050565b610e7582610fef565b810181811067ffffffffffffffff82111715610e9457610e93610fa2565b5b80604052505050565b6000610ea882610dee565b91507fffffffffffffffffffffffffffffffffffffffffffffffffffffffffffffffff821415610edb57610eda610ee6565b5b600182019050919050565b7f4e487b7100000000000000000000000000000000000000000000000000000000600052601160045260246000fd5b7f4e487b7100000000000000000000000000000000000000000000000000000000600052602260045260246000fd5b7f4e487b7100000000000000000000000000000000000000000000000000000000600052603160045260246000fd5b7f4e487b7100000000000000000000000000000000000000000000000000000000600052603260045260246000fd5b7f4e487b7100000000000000000000000000000000000000000000000000000000600052604160045260246000fd5b600080fd5b600080fd5b600080fd5b600080fd5b600080fd5b600080fd5b6000601f19601f8301169050919050565b61100981610dee565b811461101457600080fd5b5056fea26469706673582212207d65f875d8244317034df1e361a5d73c43fa5e06ad85e62fad8c39f05241289564736f6c63430008070033",
  "immutableReferences": {},
  "source": "// SPDX-License-Identifier: MIT\npragma solidity ^0.8.7;\n\ncontract List {\n    address owner;\n    constructor() public{\n        owner = msg.sender;\n    }\n    event newItem(string name, string description);\n    event deleteItem(string name);\n    struct Item {\n        string name;\n        string description;\n    }\n    Item[] public ListTotal; \n    function ViewList() external view returns(Item[] memory){\n        return ListTotal;\n    }\n    function AddItem(string calldata name, string calldata description) external{\n        ListTotal.push(Item(name,description));\n        emit newItem(name, description);\n    }\n    function DeleteItem(string memory _name) public {\n        for (uint i = 0; i < ListTotal.length; ++i) {\n            if (keccak256(abi.encodePacked(ListTotal[i].name)) ==  keccak256(abi.encodePacked(_name))) {\n                ListTotal[i] = ListTotal[ListTotal.length-1];\n                ListTotal.pop();\n                emit deleteItem(_name);\n            }\n        }\n\n    }\n    \n}",
  "sourcePath": "/Users/gilbertzhuo/Desktop/Todo List/contracts/List.sol",
  "compiler": {
    "name": "solc",
    "version": "0.8.7+commit.e28d00a7.Linux.g++"
  },
  "schemaVersion": "3.4.3",
  "updatedAt": "2021-09-13T12:57:59.195Z",
  "networkType": "ethereum",
  "devdoc": {
    "kind": "dev",
    "methods": {},
    "version": 1
  },
  "userdoc": {
    "kind": "user",
    "methods": {},
    "version": 1
  }
}