{
  "contractName": "LoyaltyReward",
  "abi": [
    {
      "inputs": [],
      "stateMutability": "nonpayable",
      "type": "constructor"
    },
    {
      "inputs": [],
      "name": "getBalance",
      "outputs": [
        {
          "internalType": "uint256",
          "name": "",
          "type": "uint256"
        }
      ],
      "stateMutability": "view",
      "type": "function",
      "constant": true
    },
    {
      "inputs": [],
      "name": "buyItem",
      "outputs": [],
      "stateMutability": "payable",
      "type": "function",
      "payable": true
    },
    {
      "inputs": [
        {
          "internalType": "uint256",
          "name": "_amount",
          "type": "uint256"
        }
      ],
      "name": "removePoints",
      "outputs": [],
      "stateMutability": "nonpayable",
      "type": "function"
    }
  ],
  "bytecode": "0x6080604052600060015534801561001557600080fd5b50336000806101000a81548173ffffffffffffffffffffffffffffffffffffffff021916908373ffffffffffffffffffffffffffffffffffffffff16021790555061047b806100656000396000f3fe6080604052600436106100345760003560e01c806312065fe014610039578063795612d6146100645780638df15df51461006e575b600080fd5b34801561004557600080fd5b5061004e610097565b60405161005b91906102c8565b60405180910390f35b61006c6100de565b005b34801561007a57600080fd5b5061009560048036038101906100909190610249565b610101565b005b6000600260003373ffffffffffffffffffffffffffffffffffffffff1673ffffffffffffffffffffffffffffffffffffffff16815260200190815260200160002054905090565b34600160008282546100f091906102f4565b925050819055506100ff6101dd565b565b6000600260003373ffffffffffffffffffffffffffffffffffffffff1673ffffffffffffffffffffffffffffffffffffffff168152602001908152602001600020541015610184576040517f08c379a000000000000000000000000000000000000000000000000000000000815260040161017b906102a8565b60405180910390fd5b80600260003373ffffffffffffffffffffffffffffffffffffffff1673ffffffffffffffffffffffffffffffffffffffff16815260200190815260200160002060008282546101d3919061034a565b9250508190555050565b600260003373ffffffffffffffffffffffffffffffffffffffff1673ffffffffffffffffffffffffffffffffffffffff168152602001908152602001600020600081548092919061022d90610388565b9190505550565b6000813590506102438161042e565b92915050565b60006020828403121561025f5761025e610400565b5b600061026d84828501610234565b91505092915050565b60006102836011836102e3565b915061028e82610405565b602082019050919050565b6102a28161037e565b82525050565b600060208201905081810360008301526102c181610276565b9050919050565b60006020820190506102dd6000830184610299565b92915050565b600082825260208201905092915050565b60006102ff8261037e565b915061030a8361037e565b9250827fffffffffffffffffffffffffffffffffffffffffffffffffffffffffffffffff0382111561033f5761033e6103d1565b5b828201905092915050565b60006103558261037e565b91506103608361037e565b925082821015610373576103726103d1565b5b828203905092915050565b6000819050919050565b60006103938261037e565b91507fffffffffffffffffffffffffffffffffffffffffffffffffffffffffffffffff8214156103c6576103c56103d1565b5b600182019050919050565b7f4e487b7100000000000000000000000000000000000000000000000000000000600052601160045260246000fd5b600080fd5b7f4e6f7420656e6f75676820706f696e7473000000000000000000000000000000600082015250565b6104378161037e565b811461044257600080fd5b5056fea26469706673582212204bdc8091916c06059a8037d2e80429eaa9818163bf3962d9a78adf9fc2561f1c64736f6c63430008070033",
  "immutableReferences": {},
  "source": "pragma solidity ^0.8.7;\n\ncontract LoyaltyReward {\n    address owner;\n    uint balance = 0;\n    constructor() {\n        owner = msg.sender;\n    }\n    \n    mapping(address=>uint) PointBalance;\n\n    function getBalance() public view returns(uint) {\n        return PointBalance[msg.sender];\n    }\n    function addPoints() internal {\n        PointBalance[msg.sender]++;\n    }\n    function buyItem() external payable{\n        balance += msg.value;\n        addPoints();\n    }\n    function removePoints(uint _amount) external {\n        require(PointBalance[msg.sender] >= 0, \"Not enough points\");\n        PointBalance[msg.sender] -= _amount;\n    }\n    \n}",
  "sourcePath": "/Users/gilbertzhuo/Desktop/LoyaltyReward Blockchain/contracts/LoyaltyReward.sol",
  "compiler": {
    "name": "solc",
    "version": "0.8.7+commit.e28d00a7.Linux.g++"
  },
  "schemaVersion": "3.4.3",
  "updatedAt": "2021-10-13T01:42:07.469Z",
  "networkType": "ethereum",
  "devdoc": {
    "kind": "dev",
    "methods": {},
    "version": 1
  },
  "userdoc": {
    "kind": "user",
    "methods": {},
    "version": 1
  }
}