{
  "contractName": "LoyaltyReward",
  "abi": [
    {
      "inputs": [],
      "stateMutability": "nonpayable",
      "type": "constructor"
    },
    {
      "anonymous": false,
      "inputs": [
        {
          "indexed": false,
          "internalType": "address",
          "name": "person",
          "type": "address"
        },
        {
          "indexed": false,
          "internalType": "uint256",
          "name": "value",
          "type": "uint256"
        }
      ],
      "name": "PurchaseItem",
      "type": "event"
    },
    {
      "anonymous": false,
      "inputs": [
        {
          "indexed": false,
          "internalType": "address",
          "name": "person",
          "type": "address"
        },
        {
          "indexed": false,
          "internalType": "uint256",
          "name": "value",
          "type": "uint256"
        }
      ],
      "name": "RedeemItem",
      "type": "event"
    },
    {
      "inputs": [],
      "name": "getBalance",
      "outputs": [
        {
          "internalType": "uint256",
          "name": "",
          "type": "uint256"
        }
      ],
      "stateMutability": "view",
      "type": "function",
      "constant": true
    },
    {
      "inputs": [],
      "name": "buyItem",
      "outputs": [],
      "stateMutability": "payable",
      "type": "function",
      "payable": true
    },
    {
      "inputs": [
        {
          "internalType": "uint256",
          "name": "_amount",
          "type": "uint256"
        }
      ],
      "name": "ItemRedemption",
      "outputs": [],
      "stateMutability": "nonpayable",
      "type": "function"
    }
  ],
  "bytecode": "0x6080604052600060015534801561001557600080fd5b50336000806101000a81548173ffffffffffffffffffffffffffffffffffffffff021916908373ffffffffffffffffffffffffffffffffffffffff160217905550610563806100656000396000f3fe6080604052600436106100345760003560e01c806312065fe014610039578063795612d614610064578063deebe40a1461006e575b600080fd5b34801561004557600080fd5b5061004e610097565b60405161005b919061037e565b60405180910390f35b61006c6100de565b005b34801561007a57600080fd5b50610095600480360381019061009091906102c7565b61013a565b005b6000600260003373ffffffffffffffffffffffffffffffffffffffff1673ffffffffffffffffffffffffffffffffffffffff16815260200190815260200160002054905090565b34600160008282546100f091906103aa565b925050819055506100ff610202565b7fc9cabaf6af4b8ed6c349bc731a5a8e29dd029b17e71bb07841cc34d680798db03334604051610130929190610335565b60405180910390a1565b6000600260003373ffffffffffffffffffffffffffffffffffffffff1673ffffffffffffffffffffffffffffffffffffffff1681526020019081526020016000205410156101bd576040517f08c379a00000000000000000000000000000000000000000000000000000000081526004016101b49061035e565b60405180910390fd5b6101c681610259565b7f28c6af056d5d41aad29a7b0a13edbc2d17736ed9e133eeb47f28ee354a0d7e4033826040516101f7929190610335565b60405180910390a150565b600260003373ffffffffffffffffffffffffffffffffffffffff1673ffffffffffffffffffffffffffffffffffffffff168152602001908152602001600020600081548092919061025290610470565b9190505550565b80600260003373ffffffffffffffffffffffffffffffffffffffff1673ffffffffffffffffffffffffffffffffffffffff16815260200190815260200160002060008282546102a89190610400565b9250508190555050565b6000813590506102c181610516565b92915050565b6000602082840312156102dd576102dc6104e8565b5b60006102eb848285016102b2565b91505092915050565b6102fd81610434565b82525050565b6000610310601b83610399565b915061031b826104ed565b602082019050919050565b61032f81610466565b82525050565b600060408201905061034a60008301856102f4565b6103576020830184610326565b9392505050565b6000602082019050818103600083015261037781610303565b9050919050565b60006020820190506103936000830184610326565b92915050565b600082825260208201905092915050565b60006103b582610466565b91506103c083610466565b9250827fffffffffffffffffffffffffffffffffffffffffffffffffffffffffffffffff038211156103f5576103f46104b9565b5b828201905092915050565b600061040b82610466565b915061041683610466565b925082821015610429576104286104b9565b5b828203905092915050565b600061043f82610446565b9050919050565b600073ffffffffffffffffffffffffffffffffffffffff82169050919050565b6000819050919050565b600061047b82610466565b91507fffffffffffffffffffffffffffffffffffffffffffffffffffffffffffffffff8214156104ae576104ad6104b9565b5b600182019050919050565b7f4e487b7100000000000000000000000000000000000000000000000000000000600052601160045260246000fd5b600080fd5b7f596f7520646f6e74206861766520656e6f75676820706f696e74730000000000600082015250565b61051f81610466565b811461052a57600080fd5b5056fea2646970667358221220ada86c3fac839ad94e5343cf9a144149203a1e64062115ae8c26285b51334d5764736f6c63430008070033",
  "immutableReferences": {},
  "source": "// SPDX-License-Identifier: MIT\npragma solidity ^0.8.7;\n\ncontract LoyaltyReward {\n    address payable owner;\n    uint balance = 0;\n    constructor() {\n        owner = payable(msg.sender);\n    }\n    mapping(address=>uint) PointBalance;\n    event PurchaseItem(address person, uint value);\n    event RedeemItem(address person, uint value);\n    function getBalance() public view returns(uint) {\n        return PointBalance[msg.sender];\n    }\n    function addPoints() internal {\n        PointBalance[msg.sender]++;\n    }\n    function removePoints(uint _amount) internal {\n        PointBalance[msg.sender] -= _amount;\n    }\n    function buyItem() external payable{\n        balance += msg.value;\n        addPoints();\n        emit PurchaseItem(msg.sender, msg.value);\n    }\n    function ItemRedemption(uint _amount) external {\n        require(PointBalance[msg.sender] >= 0, \"You dont have enough points\");\n        removePoints(_amount);\n        emit RedeemItem(msg.sender, _amount);\n    }\n    \n}",
  "sourcePath": "/Users/gilbertzhuo/Desktop/LoyaltyReward Blockchain/contracts/LoyaltyReward.sol",
  "compiler": {
    "name": "solc",
    "version": "0.8.7+commit.e28d00a7.Linux.g++"
  },
  "schemaVersion": "3.4.3",
  "updatedAt": "2021-10-13T11:20:03.291Z",
  "networkType": "ethereum",
  "devdoc": {
    "kind": "dev",
    "methods": {},
    "version": 1
  },
  "userdoc": {
    "kind": "user",
    "methods": {},
    "version": 1
  }
}